{
  "_format": "hh-sol-artifact-1",
  "contractName": "Parkade",
  "sourceName": "contracts/Parkade.sol",
  "abi": [
    {
      "anonymous": false,
      "inputs": [
        {
          "indexed": true,
          "internalType": "bytes32",
          "name": "reservationId",
          "type": "bytes32"
        },
        {
          "indexed": true,
          "internalType": "address",
          "name": "user",
          "type": "address"
        },
        {
          "indexed": false,
          "internalType": "uint256",
          "name": "amount",
          "type": "uint256"
        },
        {
          "indexed": false,
          "internalType": "bool",
          "name": "paid",
          "type": "bool"
        },
        {
          "indexed": false,
          "internalType": "address",
          "name": "ownerAddress",
          "type": "address"
        }
      ],
      "name": "Rsvn",
      "type": "event"
    },
    {
      "inputs": [
        {
          "internalType": "uint256",
          "name": "_amount",
          "type": "uint256"
        },
        {
          "internalType": "address payable",
          "name": "_ownerAddress",
          "type": "address"
        }
      ],
      "name": "makeReservation",
      "outputs": [],
      "stateMutability": "payable",
      "type": "function"
    },
    {
      "inputs": [
        {
          "internalType": "bytes32",
          "name": "",
          "type": "bytes32"
        }
      ],
      "name": "reservations",
      "outputs": [
        {
          "internalType": "uint256",
          "name": "amount",
          "type": "uint256"
        },
        {
          "internalType": "bool",
          "name": "paid",
          "type": "bool"
        },
        {
          "internalType": "address",
          "name": "ownerAddress",
          "type": "address"
        }
      ],
      "stateMutability": "view",
      "type": "function"
    },
    {
      "stateMutability": "payable",
      "type": "receive"
    }
  ],
  "bytecode": "0x608060405234801561001057600080fd5b5061037a806100206000396000f3fe60806040526004361061002d5760003560e01c8063831731ba14610039578063a1b416f91461004e57600080fd5b3661003457005b600080fd5b61004c6100473660046102ef565b6100bd565b005b34801561005a57600080fd5b5061009561006936600461032b565b6000602081905290815260409020805460019091015460ff81169061010090046001600160a01b031683565b6040805193845291151560208401526001600160a01b03169082015260600160405180910390f35b600082116101125760405162461bcd60e51b815260206004820152601f60248201527f416d6f756e742073686f756c642062652067726561746572207468616e20300060448201526064015b60405180910390fd5b6040516bffffffffffffffffffffffff193360601b16602082015242603482015260009060540160408051601f1981840301815282825280516020918201206060808501845287855260008386018181526001600160a01b038981168888018181528685528488528885208a518155935160019094018054915190931661010002610100600160a81b0319941515949094166001600160a81b03199091161792909217905585518a815294850191909152938301939093529350339184917f8120357b0c6075b268a3011f4472dcec0b32c320043c528cea9410b3e5587cc4910160405180910390a38334101561024b5760405162461bcd60e51b815260206004820152601b60248201527f496e73756666696369656e74207061796d656e7420616d6f756e7400000000006044820152606401610109565b6000828152602081905260408082206001908101805460ff19169091179055516001600160a01b0385169186156108fc02918791818181858888f1935050505015801561029c573d6000803e3d6000fd5b5060408051858152600160208201526001600160a01b038516818301529051339184917f8120357b0c6075b268a3011f4472dcec0b32c320043c528cea9410b3e5587cc49181900360600190a350505050565b6000806040838503121561030257600080fd5b8235915060208301356001600160a01b038116811461032057600080fd5b809150509250929050565b60006020828403121561033d57600080fd5b503591905056fea2646970667358221220d79112b1cd1855f3e7f7b0533ad19c8bb353818ee2dc144d4af973a525ed2ca164736f6c63430008090033",
  "linkReferences": {},
  "deployedLinkReferences": {}
}